S015000053414D4432315F4144435F4C362E737265637F
S1130000A8200020650100006101000061010000DA
S113001000000000000000000000000000000000DC
S1130020000000000000000000000000610100006A
S113003000000000000000006101000061010000F8
S11300406101000061010000610100006101000024
S11300506101000061010000610100006101000014
S11300606101000061010000610100006101000004
S113007061010000610100006101000061010000F4
S113008061010000610100006101000061010000E4
S113009061010000610100006101000061010000D4
S11300A061010000610100006101000061010000C4
S11300B00000000010B5064C2378002B07D1054B37
S11300C0002B02D0044800E000BF0123237010BDC0
S11300D064000020000000006C200000084B10B5F4
S11300E0002B03D00749084800E000BF0748036815
S11300F0002B00D110BD064B002BFBD09847F9E72D
S113010000000000680000206C2000006C2000004B
S11301100000000010B500210148024B984710BDB3
S1130120A0000020C903000070B5040002230200EF
S113013000210448044DA847607800022378C018C1
S1130140606070BDA0000020F503000010B5024BF4
S11301509847024B984710BD71030000C10B000083
S1130160FEE70000F8B52A4A2A4B9A4211D01A0039
S1130170294B9A420DD2294A03339B1A9B08013317
S11301809B000022234822498C58845004329A420E
S1130190FAD1234A234B9A420AD2D34321495B180A
S11301A003218B4304339B18002102C29342FCD1E8
S11301B01D4AFF211D4B8B439360FD3990235B0047
S11301C01B4AD1501B4AD3780325AB430224234353
S11301D0D370D3780C27BB4308263343D370164B14
S11301E0987B30229043202210439873997BB94323
S11301F0314399739A7BAA4322439A730F4A5368F3
S113020080210B4353600E4B98470E4B9847FEE7F3
S11302106C20000000000020640000200400002086
S113022064000020A800002000ED00E000000000B1
S1130230007000410050004100480041004000416E
S1130240CD0E0000C10A000010B54022C023DB051A
S11302505A600A490A4B8B62C0231B068B624623F1
S1130260CA5C012082430243D2B2CA5433228B5C5B
S11302700F24A3430343DBB28B5410BD004400415D
S113028040000040044A116A80235B020B4313625E
S1130290024A034B5A807047000400401E4000008D
S11302A0000C004010B5054B9847054B98470022B9
S11302B004490548054B984710BDC0468502000017
S11302C04902000000400042A00000209503000005
S11302D030B50E4B5622995C0125A94301242143D4
S11302E0C9B299543B20195C473A91430D3A1143E2
S11302F0195457215A5CAA432243D2B25A541A5C65
S113030048390A4011310A431A5430BD00440041AF
S1130310044A136A20210B431362034A034B5A8095
S11303207047C0460004004017400000000C004025
S113033010B5054B9847002204490548054B9847DA
S1130340054B984710BDC04611030000001400423D
S11303509400002035060000D102000010B50248C8
S1130360024B984710BDC04610E000E0B504000001
S113037010B5044B9847044B9847044B9847044BDB
S1130380984710BD89080000A50200003103000051
S11303905D03000070B504000D0000280CD00800B7
S11303A0431E9841C0B239220449054B984729009D
S11303B02000044B984770BD0020F4E7081F00009C
S11303C0AD060000F907000070B504000D00431EDF
S11303D09841C0B24E220449044B9847290020009A
S11303E0034B9847002070BD081F0000AD060000B5
S11303F031080000F0B5DE4657464E464546E0B5A6
S113040083B006000D009146019300281ED0002AF7
S11304101ED01800431E984167221F491F4FB8473A
S1130420340030001E4B98470100804601981D4B54
S1130430984748424841C0B269221749B847002743
S1130440194B9B46194E1A4B9A4608E00020E3E7E5
S11304500020E1E74744BFB2019BBB4213D920000F
S1130460D84729002000B0470028FAD029002000EE
S1130470D0474B46D8554346012BEBD94B46DB19A5
S1130480000A5870E6E7380003B03CBC9046994631
S1130490A246AB46F0BDC046081F0000AD060000F2
S11304A03D080000C10E00005F0800005508000070
S11304B07108000010B5024B1860024B984710BD3C
S11304C080000020590A000010B5044B1C68044B3E
S11304D0984701002000034B984710BD800000207E
S11304E07F0800006D0A000070B506000C001500BE
S11304F000280DD00800431E9841C0B2342205499B
S1130500054B984733682A0021003000984770BD96
S11305100020F3E7241F0000AD06000070B50600BC
S11305200C00150000280DD00800431E9841C0B2ED
S11305303D220549054B984773682A002100300085
S1130540984770BD0020F3E7241F0000AD060000AB
S1130550F8B5CE46474680B504000F009046002803
S113056026D0002926D01000431E9841F1221249BA
S1130570124B98470834124D2000A8470028FBD09E
S11305800026104B99460E4DB95D2000C847200047
S1130590A8470028FBD001364645F5D30A4D200074
S11305A0A8470028FBD030000CBC90469946F8BD03
S11305B00020DBE70020D9E7381F0000AD0600006B
S11305C0E5090000D5090000EF090000F8B5CE46A2
S11305D0474680B504000F00904600281DD000292E
S11305E01DD01000431E9841862252000D490E4B27
S11305F09847002608340D4D0D4B99462000A84716
S11306000028FBD02000C847B85501364645F5D32D
S113061030000CBC90469946F8BD0020E4E7002069
S1130620E2E7C046381F0000AD060000F9090000EB
S1130630DD09000070B505000C00002813D0080087
S1130640431E9841C0B234220849094B98472800F8
S113065008302100074B9847002803D1064B6B60F4
S1130660064B2B6070BD0020EDE7C046381F00002C
S1130670AD06000095090000CD05000051050000FD
S113068010B50400431E9841C0B253220449054BDF
S1130690984720000830044B9847002010BDC046FE
S11306A0381F0000AD060000C1090000002800D179
S11306B000BE70470300064A1268002A04D0044AA8
S11306C01068C318136070470249014A1160F6E7C5
S11306D084000020A820002001204042704780238D
S11306E09B014B6000207047012070470020704739
S11306F00020704770B504000D00394BC018424209
S11307004241D0B294223749374B9847374B1A6845
S11307105201E023DB001A40354B596849011B683C
S1130720DB0E0B43FF210B401A43637EDB09FCD134
S113073023789B0704D500232370637EDB09FCD157
S113074001232370637EDB09FCD12285EA00521B5E
S11307509200284B9B189A786270DA78A2701A7902
S1130760E2701A7C2275DA8AA2841A8BE284997E5A
S11307702A22A154DB88A380637EDB09FCD1EB0031
S11307805B1B9B001B4AD318DB682361637EDB0978
S1130790FCD1EB005B1B9B00164AD3181B7A237217
S11307A0637EDB09FCD1EB005B1B9B00114AD31871
S11307B05B8AA383637EDB09FCD1EB005B1B9B009C
S11307C00C4AD3189B8A2384637EDB09FCD1EB009B
S11307D05D1BAD00074B5D196B782370002070BD65
S11307E000C0FFBD701F0000AD0600002460800043
S11307F020608000541F000070B505000C00431EEB
S11308009841C0B2C5220649064B98472C60200087
S1130810054B984701002000044B984770BDC04623
S1130820701F0000AD060000F1060000F506000090
S11308300268137802210B43137070470268537ED9
S1130840DB09FCD190888006800F0338431E984151
S1130850013070470368187E01231840704702680E
S1130860137B02210B431373537EDB09FCD17047C6
S11308700268537EDB09FCD1508B80B27047FA23A7
S11308805B0158437047000010B5064B5A685A6024
S1130890054B9847054B9847054B9847FF20054B58
S11308A0984710BD00400041D9080000050A000027
S11308B0490A0000B9080000C3070AD5054B802285
S11308C052009A60832252025A601A005378DB095C
S11308D0FCD17047000C0040064B1A7AD2B21A724F
S11308E05A7AD2B25A729A7AD2B29A72DA7AD2B264
S11308F0DA7270470004004010B504001F4BC3189F
S11309009B0ADBB2032B04D01D4A1E4900201E4B58
S11309109847E369DB0718D40322E3691A42FCD140
S113092023689B070BD5236802229343236001327B
S1130930E3691A42FCD10222E3691A42FCD105237D
S113094023600322E3691A42FCD10122E3691A42BB
S1130950FCD10E4B23600322E3691A42FCD1C0236D
S11309609B0263600722E3691A42FCD1084BA3810E
S11309700023A3733022A354002010BD00F8FFBD50
S11309803A020000881F0000AD0600000400104079
S113099082E2FFFF70B505000C00431E9841C0B20F
S11309A0B4220449044B98472C602000034B984719
S11309B070BDC046881F0000AD060000F9080000A5
S11309C00268136802210B4313600131D369194291
S11309D0FCD17047036889B2198570470368188D84
S11309E0C0B270470368187E01231840704703683B
S11309F0187E8007C00F70470368187E4007C00F39
S1130A00704700000E4B196A1A6A0E480140920F93
S1130A109207022002430A431A629A6902439A61C6
S1130A201A7F1F210A401A7719000822CB681A423C
S1130A30FCD0034A136A80210B4313627047C046FB
S1130A40000800400000FF0F024A936902218B4313
S1130A509361704700080040024B034A5A60052224
S1130A601A60704710E000E0FFFFFF0070B50B0E46
S1130A705E1EF6B2002B13D034000E4A0E4D8020B9
S1130A8040025560956013680342FCD0013CE4B217
S1130A90FF2CF6D13306F61A084B9C4661447118B4
S1130AA0044B596099601900802252020B6813426A
S1130AB0FCD070BD10E000E0FFFFFF00010000FF6C
S1130AC070B582B0074B9847074B9847074E084DBF
S1130AD0084C01A8B04701002800A047FA20064BA3
S1130AE09847F6E74D0100001501000029010000B8
S1130AF0A41F0000250F0000C904000010B50B005E
S1130B00002809D111001800054B9847002800DB84
S1130B1010BD01204042FBE701204042F8E7C046F7
S1130B20790B000010B50B000138022809D8110018
S1130B301800054B9847002800DB10BD01204042F7
S1130B40FBE701204042F8E79D0B000070B506006A
S1130B50064D2B6898680021054CA0472B685868FF
S1130B600021A047034B1E6070BDC046000000205A
S1130B70590F00008800002010B50400054B1868C8
S1130B80002804D08AB22100034B984710BD0020EE
S1130B90FCE7C046880000201D05000010B50400D5
S1130BA0054B1868002804D08AB22100034B9847EB
S1130BB010BD0020FCE7C04688000020E9040000C6
S1130BC010B5044C2000044B98472000034B984771
S1130BD010BDC04694000020810600004D0B0000AB
S1130BE0002243088B4274D303098B425FD3030A68
S1130BF08B4244D3030B8B4228D3030C8B420DD37B
S1130C00FF22090212BA030C8B4202D31212090208
S1130C1065D0030B8B4219D300E0090AC30B8B4246
S1130C2001D3CB03C01A5241830B8B4201D38B03F4
S1130C30C01A5241430B8B4201D34B03C01A524199
S1130C40030B8B4201D30B03C01A5241C30A8B42DC
S1130C5001D3CB02C01A5241830A8B4201D38B02C7
S1130C60C01A5241430A8B4201D34B02C01A52416B
S1130C70030A8B4201D30B02C01A5241CDD2C309DD
S1130C808B4201D3CB01C01A524183098B4201D359
S1130C908B01C01A524143098B4201D34B01C01A44
S1130CA0524103098B4201D30B01C01A5241C308BC
S1130CB08B4201D3CB00C01A524183088B4201D32B
S1130CC08B00C01A524143088B4201D34B00C01A17
S1130CD05241411A00D20146524110467047FFE783
S1130CE001B5002000F0F0F802BDC0460029F7D09D
S1130CF076E7704703460B437FD4002243088B42B8
S1130D0074D303098B425FD3030A8B4244D3030B8E
S1130D108B4228D3030C8B420DD3FF22090212BA53
S1130D20030C8B4202D31212090265D0030B8B42CF
S1130D3019D300E0090AC30B8B4201D3CB03C01AB9
S1130D405241830B8B4201D38B03C01A5241430B94
S1130D508B4201D34B03C01A5241030B8B4201D384
S1130D600B03C01A5241C30A8B4201D3CB02C01AEF
S1130D705241830A8B4201D38B02C01A5241430A67
S1130D808B4201D34B02C01A5241030A8B4201D356
S1130D900B02C01A5241CDD2C3098B4201D3CB01FD
S1130DA0C01A524183098B4201D38B01C01A5241AC
S1130DB043098B4201D34B01C01A524103098B42B0
S1130DC001D30B01C01A5241C3088B4201D3CB009B
S1130DD0C01A524183088B4201D38B00C01A52417E
S1130DE043088B4201D34B00C01A5241411A00D22E
S1130DF001465241104670475DE0CA0F00D0494297
S1130E00031000D34042534000229C4603098B4206
S1130E102DD3030A8B4212D3FC22890112BA030A8E
S1130E208B420CD3890192118B4208D38901921110
S1130E308B4204D389013AD0921100E08909C30995
S1130E408B4201D3CB01C01A524183098B4201D397
S1130E508B01C01A524143098B4201D34B01C01A82
S1130E60524103098B4201D30B01C01A5241C308FA
S1130E708B4201D3CB00C01A524183088B4201D369
S1130E808B00C01A5241D9D243088B4201D34B0084
S1130E90C01A5241411A00D20146634652415B10C6
S1130EA0104601D34042002B00D5494270476346A7
S1130EB05B1000D3404201B5002000F005F802BDEC
S1130EC00029F8D016E770477047C04670B5002671
S1130ED00C4D0D4C641BA410A64209D1002601F050
S1130EE0B5F80A4D0A4C641BA410A64205D170BD86
S1130EF0B300EB5898470136EEE7B300EB58984738
S1130F000136F2E758200000582000005820000065
S1130F105C20000003008218934200D170471970CE
S1130F200133F9E70FB40B4B13B51C68002C05D043
S1130F30A369002B02D1200000F088FA05AB049AC3
S1130F40A1682000019300F05DFC16BC08BC04B04D
S1130F501847C046000000204A424A41802310B589
S1130F605200DB0000F002F810BD0000F0B51D00D7
S1130F704F4B85B01E6804000F000092002E05D070
S1130F80B369002B02D1300000F060FA494B9C4257
S1130F9050D17468009B022B05D0012B00D984E04A
S1130FA0002D00DA81E02100300000F0E1F9616BEE
S1130FB0002908D023004433994202D0300000F0C5
S1130FC051FB002363630023A3616360A3891B06B1
S1130FD003D52169300000F045FBA389364A13404C
S1130FE0A381009B022B5AD003AB02AA210030003C
S1130FF000F0C2FAA3891843A081002D24D1029DD8
S1131000280000F025FB0195071E42D1029B0193A5
S1131010AB4239D1012040420223A2891343A38168
S11310200023A3602300473323602361012363610A
S113103005B0F0BD214B9C4201D1B468AAE7204B16
S11310409C42A7D1F468A5E7002FD9D0B369002B3F
S113105002D1300000F0FAF9009B012B03D1A389DF
S1131060009A1A43A2810820A38927602761656139
S1131070184018D0012018400023984211D06D4226
S1131080A360A5611800D3E7019800F0E1FA071EF8
S1131090C0D08023A289019D1343A381D6E70020F9
S11310A0BAE7A560C4E7A060C2E701204042BFE7F9
S11310B000000020D81F00005CF3FFFFF81F0000B1
S11310C0B81F0000F8B505000E001400002804D075
S11310D08369002B01D100F0B9F9224B9C422DD138
S11310E06C68A369A360A3891B0731D52369002B0E
S11310F02ED023682269F7B2981A6369F6B298422F
S113110005DB2100280000F033F9002826D1A3686C
S11311100130013BA36023685A1C22601F7063697D
S1131120984204D0A389DB071AD50A2E18D12100CE
S1131130280000F01DF9002812D00FE00A4B9C4251
S113114001D1AC68CDE7094B9C42CAD1EC68C8E731
S11311502100280000F00CF80028CAD001267642AD
S11311603000F8BDD81F0000F81F0000B81F0000B1
S1131170364B70B51D6806000C00002D05D0AB6918
S1131180002B02D1280000F061F9314B9C420FD1B1
S11311906C680C23E25E93B219072DD4D90611D4DE
S11311A009230120336037331343A381404270BDC8
S11311B0284B9C4201D1AC68EBE7274B9C42E8D119
S11311C0EC68E6E75B0713D5616B002908D02300C0
S11311D04433994202D0300000F044FA00236363A0
S11311E02422A3899343A38100236360236923609A
S11311F00823A2891343A3812369002B0BD1A021C7
S11312008022A389890092000B40934203D02100DD
S1131210300000F0D9F90123A289134011D0002332
S1131220A36063695B42A361002023698342BED14A
S11312300C23E25E1306BAD540231343A38101387D
S1131240B5E7920700D46369A360EDE700000020CE
S1131250D81F0000F81F0000B81F0000F7B58A89E6
S113126005000C00130760D44B68002B04DC0B6CE6
S1131270002B01DC0020FEBDE76A002FFAD000231A
S11312802E682B6080235B011A4034D0606DA389E3
S11312905B0706D56368C01A636B002B01D0236C0F
S11312A0C01A0200216A00232800E76AB847A1890E
S11312B0431C06D12B681D2B31D82C4ADA40D307A6
S11312C02DD50023636023692360CB0405D5431C1B
S11312D002D12B68002B00D16065616B2E60002960
S11312E0C8D023004433994202D0280000F0BAF950
S11312F000206063BFE70123216A2800B847431C2C
S1131300C5D12B68002BC2D01D2B01D0162B01D1C7
S11313102E60AFE74023A2891343A381ABE74023A8
S11313200B430120A3814042A5E70F69002FA1D000
S11313300B680F60DB1B01930023920700D14B69FC
S1131340A360019B002B00DC94E7019B3A00216A17
S11313502800A66AB047002803DC4023A28913436F
S1131360DFE7019B3F181B1A0193EAE701004020C5
S11313700B6970B505000C00002B01D1002070BD75
S1131380002804D08369002B01D100F05FF80B4BD7
S11313909C4209D16C680C22A35E002BEED0210084
S11313A02800FFF75BFFEAE7054B9C4201D1AC68DC
S11313B0F1E7044B9C42EED1EC68ECE7D81F000047
S11313C0F81F0000B81F000010B5024900F0B2F881
S11313D010BDC04671130000002310B50400036063
S11313E04360836081814366C28103614361836199
S11313F0190008225C30FFF78DFD054B24626362FF
S1131400044BA362044BE362044B236310BDC04648
S1131410711D0000991D0000D11D0000FD1D00007C
S113142070B568254A1E55430E002900743100F03A
S113143063F9041E08D000212A00016046600C30C4
S1131440A0606832FFF766FD200070BD836913B5A4
S11314500400002B28D18364C3640365134B144A2E
S11314601B6882620193984201D1012383612000A9
S113147000F020F86060200000F01CF8A06020005C
S113148000F018F80022E06004216068FFF7A4FF70
S113149001220921A068FFF79FFF02221221E068C0
S11314A0FFF79AFF0123A36113BDC046B41F0000D8
S11314B0C9130000F8B51E4B07001E68B369002B62
S11314C002D13000FFF7C2FF4836B4687368013BAD
S11314D004D53368002B07D03668F6E70C22A55EE6
S11314E0002D0DD06834F2E704213800FFF798FF8F
S11314F030600028F0D10C2304003B602000F8BDCC
S1131500012320005B42E3810233A38165662560E9
S1131510A560656025616561A561082229005C30CC
S1131520FFF7F8FC6563A563A564E564E6E7C046D8
S1131530B41F0000F7B504000700002601914834E9
S1131540002C01D13000FEBD6368A5680093009BA8
S1131550013B009301D52468F2E7AB89012B08D93C
S11315600E22AB5E013304D029003800019B98475A
S113157006436835EBE7000070B50E001D000E232E
S1131580C95E90B01400002907DA00232B60B389E8
S11315901B0611D48023DB000FE001AA00F05AFCE3
S11315A00028F2DBF022029B12021340054A9B182A
S11315B05A4253412B60EDE740230020236010B0D2
S11315C070BDC04600E0FFFFF7B502268B89050019
S11315D00C00334206D023004733236023610123E8
S11315E06361F7BD01AB6A46FFF7C6FF00990700C8
S11315F0280000F081F8002808D10C22A35E9A0587
S1131600EFD4032293431E43A681E4E70F4BAB625E
S11316108023A28920601343A381009B206163611E
S1131620019B002B0DD00E23E15E280000F024FC6A
S1131630002806D00322A38993431A0001231343ED
S1131640A381A0893843A081CBE7C046C913000019
S113165010B5034B0100186800F04EF810BDC046E9
S11316600000002070B50500002910D00C1F23686D
S1131670002B00DAE418280000F02FFC1D4A136840
S1131680002B05D163601460280000F027FC70BDB6
S1131690A34209D9216860188342F3D118685B68B2
S11316A041182160EEE713005A68002A01D0A242D3
S11316B0F9D919685818A0420BD12068091858188C
S11316C019608242E0D110685268411819605A606A
S11316D0DAE7A04202D90C232B60D5E72168601811
S11316E0824203D1106852684118216062605C60D4
S11316F0CAE7C0468C000020032370B5CD1C9D436F
S1131700083506000C2D1ED20C25A9421DD8300028
S113171000F0E3FB254A14682100002919D1244C68
S11317202368002B03D1300000F010FB2060290057
S1131730300000F00BFB431C2CD10C233000336031
S113174000F0CCFB03E0002DDFDA0C233360002033
S113175070BD0B685B1B1AD40B2B03D90B60CC1820
S1131760256003E08C420ED163681360300000F002
S1131770B5FB200007220B30231D9043C31AE7D08A
S11317805A42E250E4E74B6863600C00EEE70C0059
S11317904968C2E70323C41C9C43A042E0D0211A39
S11317A0300000F0D3FA431CDAD1C6E78C000020E5
S11317B090000020936810B5013B9360002B05DA7C
S11317C09469A34208DBCBB20A2B05D01368581CDA
S11317D010601970C8B210BDFFF774FCFBE7F8B5D0
S11317E006000F001400D518AC4201D1002007E018
S11317F021783A003000FFF7DDFF0134431CF3D1B8
S1131800F8BD0000F0B59FB006000F00140005936A
S1131810002804D08369002B01D1FFF717FE7F4B0A
S11318209F425CD17768BB891B0762D53B69002B5B
S11318305FD0002306AD6B6120336B761033AB763B
S11318400294029C2378002B5DD1029BE31A04933B
S11318500DD0049B029A39003000FFF7C0FF431CEF
S113186000D1CCE06A69049B944663446B6123789D
S1131870002B00D1C3E00122002352426A6002A976
S11318805432521801342B60EB60AB601370AB65BB
S113189021780522624800F015FB631C9C46002851
S11318A035D12968CB0604D5532302AA20309B18CE
S11318B018700B0704D553232B2002AA9B18187009
S11318C023782A2B2CD000200A21099B2278303A35
S11318D0092A00D86BE000282AD0099328E0514B4C
S11318E09F4201D1B7689EE74F4B9F429BD1F76857
S11318F099E739003000FFF73BFC002899D001201C
S113190040421FB0F0BD252B9FD001349AE7444BD1
S11319102968C01A012383400B432B606446B7E750
S1131920059B181D1B680590002B3ADB0993644640
S113193023782E2B0BD16378621C2A2B3FD1059B75
S113194002341A1D1B680592002B35DB079321789E
S11319500322364800F0B6FA002807D0334B2A6831
S1131960C01A4023834013432B6001342178631C45
S113197006222F480293297600F0A4FA002844D0C6
S11319802C4B002B2FD12968059B0722C90528D58C
S11319909B189343083305936B69039A9B186B61F7
S11319A04FE75B42EB6002230B432B60BFE74B43E3
S11319B001349B18012089E701235B42C6E7002319
S11319C014000A201A006B6021783039092903D9E0
S11319D0002BBCD00792BAE74243013452180123CA
S11319E0F2E70733D5E705AB00933A00124B290021
S11319F0300000E000BF0390039B0133CCD1BB89CE
S1131A005B0600D57BE70B987BE705AB00933A00B8
S1131A10094B2900300000F07FF8ECE7D81F0000E4
S1131A2018200000F81F0000B81F00001E2000004E
S1131A302220000000000000DF170000F7B51500A9
S1131A4001938A680B6900900C00934200DA13003A
S1131A5022002B6043321278002A01D001332B601C
S1131A6023689B0602D52B6802332B600627236864
S1131A701F4027D0230043331B785A1E934122680A
S1131A80920630D42200019943320098089EB04750
S1131A90431C25D0062320682A68E16803400025FA
S1131AA0042B03D18D1AEB43DB171D40A368226975
S1131AB0934201DD9B1AED180027BD4220D100207E
S1131AC010E00137E3682A689B1A9F42D2DA2200A9
S1131AD00123193201990098089EB047431CF0D1A4
S1131AE001204042FEBD3020E1184331087021003E
S1131AF05A1C45310978A218433202331170C1E7E8
S1131B00220001231A3201990098089EB047431C11
S1131B10E6D00137D1E70000F0B58BB006920A0099
S1131B2043320793059004920A7E0C00109B6E2AA0
S1131B3000D18FE017D8632A2CD008D8002A00D10E
S1131B4099E0582A54D026004236327029E0642A9B
S1131B5001D0692AF7D121681A68080623D5111D16
S1131B601960156825E0732A00D188E008D86F2A27
S1131B7029D0702AE7D1202209680A43226003E0B1
S1131B80752A20D0782ADED12200782145321170BE
S1131B906C4A30E00E001A684236111D1960136851
S1131BA03370012379E04906D9D5111D196000234A
S1131BB0D55E002D03DA2D23049A6D421370624B17
S1131BC00A2703932FE020681968050603D5081D2A
S1131BD018600D6805E04006F9D50D68081D186009
S1131BE0ADB2594B082703936F2A18D00A2716E081
S1131BF045310A70544A03921A682168101D18600E
S1131C001568080622D5CB0702D520231943216085
S1131C101027002D03D1202322689A432260230039
S1131C20002243331A706368A360002B5CDB042238
S1131C30216891432160002D58D1049E002B64D06B
S1131C402600039B42361B7833705EE04806DAD5E3
S1131C50ADB2D8E709681A68080605D5111D1960E0
S1131C60136862691A6006E04906F7D5111D196008
S1131C701368A28A1A800023049E236154E01A6820
S1131C80111D1960166800216268300000F01AF90D
S1131C90002801D0801B6060636823610023049ADC
S1131CA0137041E02369320006990598079DA847FF
S1131CB0431C43D0236800259B070FD4099BE0688D
S1131CC098423DDA18003BE02200012319320699BC
S1131CD00598079EB047431C30D00135E368099A44
S1131CE09B1A9D42F0DBE9E7002DA9D0049E280051
S1131CF03900FEF7FBFF039B013E5B5C2800337059
S1131D003900FEF76DFF051EF1D1082F09D12368B4
S1131D10DB0706D563682269934202DC3023013E67
S1131D203370049B9B1B2361079B09AA009321002A
S1131D30069B0598FFF782FE431CB3D10120404265
S1131D400BB0F0BD3A20000029200000002370B53C
S1131D50064C050008002360FEF7ACFC431C03D1CD
S1131D602368002B00D02B6070BDC046A400002067
S1131D7070B50C000E25495F00F0B2F8002803DBB3
S1131D80636D1B18636570BDA389024A1340A38168
S1131D90F9E7C046FFEFFFFFF8B51F008B89050088
S1131DA00C001600DB0505D50E23C95E00220223B4
S1131DB000F074F8A389054A28001340A381320077
S1131DC00E23E15E3B0000F01FF8F8BDFFEFFFFFBC
S1131DD070B50C000E25495F00F060F8A389421C21
S1131DE003D1054A1340A38170BD802252011343DD
S1131DF0A3816065F8E7C046FFEFFFFF10B50E232F
S1131E00C95E00F015F810BD70B50500080011009A
S1131E100022064C22601A00FEF784FE431C03D104
S1131E202368002B00D02B6070BDC046A4000020A6
S1131E30002370B5064C050008002360FEF74CFC37
S1131E40431C03D12368002B00D02B6070BDC04617
S1131E50A4000020002370B5064C05000800110002
S1131E602360FEF73CFC431C03D12368002B00D005
S1131E702B6070BDA4000020002370B5064C050043
S1131E8008002360FEF730FC431C03D12368002BB9
S1131E9000D02B6070BDC046A400002070B50500C2
S1131EA0080011000022064C22601A00FEF71EFCF6
S1131EB0431C03D12368002B00D02B6070BDC046A7
S1131EC0A4000020C9B28218904201D100207047BA
S1131ED003788B42FBD00130F6E77047704700006F
S1131EE070B50500080011000022064C22601A009B
S1131EF0FEF704FE431C03D12368002B00D02B60A3
S1131F0070BDC046A40000202E2E2F68616C2F7374
S1131F1072632F68616C5F6164635F73796E632EB3
S1131F20630000002E2E2F68616C2F7372632F687C
S1131F30616C5F696F2E63002E2E2F68616C2F73A6
S1131F4072632F68616C5F75736172745F73796E0D
S1131F50632E630000020200000020010000000064
S1131F60061800000000000000000000000000004F
S1131F702E2E2F68706C2F6164632F68706C5F6104
S1131F8064632E63000000002E2E2F68706C2F7384
S1131F906572636F6D2F68706C5F736572636F6DCC
S1131FA02E63000050413030363D253033640D0A35
S1131FB000000000040000200000000000000000F9
S1131FC0000000000000000000000000000000000D
S1131FD000000000000000000000000000000000FD
S1131FE000000000000000000000000000000000ED
S1131FF000000000000000000000000000000000DD
S113200000000000000000000000000000000000CC
S11320100000000000000000232D302B2000686C1D
S11320204C006566674546470030313233343536F7
S11320303738394142434445460030313233343530
S1132040363738396162636465660000F8B5C046A6
S1132050F8BC08BC9E467047DD000000F8B5C046D9
S10F2060F8BC08BC9E467047B5000000A8
S113206C0400002000000000D81F0000F81F00002E
S113207CB81F000000000000000000000000000079
S113208C0000000000000000000000000000000040
S113209C0000000000000000000000000000000030
S11320AC0000000000000000000000000000000020
S11320BC0000000000000000000000000000000010
S10720CC000000000C
S9030000FC
